:1000000009C00EC05BC00CC00BC00AC009C008C04C
:1000100007C006C011241FBECFE9CDBF50D0A4C079
:10002000EFCF98E0C39A87FFC39800C0880FC398AA
:100030009150C1F70895EF92FF920F931F93CF93C2
:10004000DF93E82EF89470E08B0186E01595079514
:100050008A95E1F7660F771F660F771FF62ECCEFB4
:10006000C61BD0E0ED1219C00130110551F002306D
:10007000110569F001151105B1F48F2DD2DF8C2F18
:100080000FC08C2FCEDF80E0CCDF8F2D0BC080E047
:10009000C8DF8F2DC6DF8C2F05C080E0C2DF80E077
:1000A000C0DF80E0BEDFDF5FD031E1F67894DF9122
:1000B000CF911F910F91FF90EF900895189580E8D0
:1000C00088B98FE084BB91E095BD85B7877E85BFF9
:1000D00093BFC49A8BB780628BBFAC9ABB9A60E027
:1000E00080E0A9DF10E0D0E085B7806285BF889509
:1000F00085B78F7D85BFB499F7CFC2B7CF70C05F8A
:10010000C15099F01F5F103C08F010E0DF5FDF7016
:10011000612F8D2F90DF8C2F815090F3EFE5F9E068
:100120003197F1F700C00000F7CFCF5FC03699F0EC
:100130001F5F103C08F010E0DF5FDF70612F8D2F34
:100140007ADF8C2F815088F3EFE5F9E03197F1F7F2
:1001500000C00000F7CFB49BFECF8FEB9DE5019769
:0C016000F1F700C00000C0CFF894FFCF02
:00000001FF
