:1000000031C049C048C047C046C045C044C043C0D5
:10001000E4C041C0D7C12CC159C172C188C19DC1C2
:10002000A8C1BEC1000000000000000101010202E1
:10003000030304050607080A0B0D0E101214161907
:100040001B1E2124272B2F32373B3F44494E535947
:100050005F656B72787F878E969EA7AFB8C1CBD550
:10006000DFE9F4FF11241FBECFE9CDBF10E0A0E609
:10007000B0E0EEEFF3E002C005900D92A236B107BA
:10008000D9F720E0A2E6B0E001C01D92A238B20785
:10009000E1F7B7D0B2C1B4CFF894A89514BE88E9FF
:1000A00081BD82E481BD78940895BC0120916000F7
:1000B00030916100C90181709927919581959109CD
:1000C0008827947B36952795822793279093610004
:1000D000809360007ED10895E2E7F0E0808188237C
:1000E00011F081508083319680E0E238F807B1F753
:1000F000089598E0C39A87FFC39800C0880FC398FB
:100100009150C1F708958F929F92AF92BF92CF9274
:10011000DF92EF92FF920F931F93CF93DF93C2E68C
:10012000D0E002E710E032E7E32E30E0F32E46E0C5
:10013000C42ED12C5FE3A52EB12C8991282F2F73CB
:1001400030E0F80191918F01A601491B5109F90195
:10015000042E02C0F595E7950A94E2F7EC5DFF4F97
:100160008490F501E21BF30B02C0F595E7954A95E3
:10017000E2F7EC5DFF4F949090E026E0959587952F
:100180002A95E1F78130910559F08230910571F09F
:10019000892B91F4882DADDF892DABDF80E00BC07A
:1001A000892DA7DF80E0A5DF882D05C080E0A1DFD5
:1001B000882D9FDF892D9DDFEC16FD0609F0BDCF50
:1001C000DF91CF911F910F91FF90EF90DF90CF9033
:1001D000BF90AF909F908F9008951F920F920FB68F
:1001E0000F9211248F930FB6F894A89581B588616A
:1001F00081BD11BC0FBE8F910F900FBE0F901F904D
:1002000018954ADF80E888B98FE084BB83E085BD1C
:1002100085B7877E806185BFC49ABB9A712C08E040
:1002200010E0A0E65A2EC0E0D1E0B2E7EB2EB0E03D
:10023000FB2E82E7C82E80E0D82E96E0692ED150A2
:1002400031F47394E7E0DCE4E71508F4712C24DF63
:1002500085B7806285BF889585B78F7D85BF872DDF
:1002600090E08830910558F7FC01E65FFF4F099454
:1002700033DFE4E0BE2EBC0EF4E0AF2EA50C8FEB16
:100280008B1518F474E4B72EBC0EEFEBEA1518F4D6
:1002900064E4A62EA50C1F5F1F700F5F0F70812FE7
:1002A00090E0FC01EE58FF4F6082FC01EE59FF4FD9
:1002B000B082802F90E0FC01EE58FF4F6082FC017D
:1002C000EE59FF4FA0821FDF5A2C7AC005DF84E071
:1002D00090E0EBDEB82EBB2009F460C080EC90E02B
:1002E000E4DEA82E80E190E0E0DE9927FC01EE58E4
:1002F000FF4F6082FC01EE59FF4FA082BA94EBCF12
:1003000042E7A42E40E0B42E52E6852E50E0952E12
:1003100080EC90E0CADEF50161925F01F401819307
:100320004F01F2E8AF16F0E0BF0691F720C032E6C9
:10033000A32E30E0B32E88E090E0B7DEF501908187
:10034000890F803C10F0805CF5018083FFEFAF1ACD
:10035000BF0AEA14FB0479F721C0A2E7B0E0E2E6A5
:10036000F0E0C0E06D92C193C45FC03CD9F7CBDE32
:100370002EC09091810080917100E1E8F0E0A1E74A
:10038000B0E0229121832E9111962C931197CE16D5
:10039000DF06B9F79093720080936200B4DE4FCF0E
:1003A00023E0B22EBC0E8FEB8B1518F493E4B92E1C
:1003B000BC0EE2E6F0E0B192EE16FF06E1F7A3DE36
:1003C000CB2D3DCF08E010E080E6582EC0E0D1E014
:1003D00036CFAA1BBB1B51E107C0AA1FBB1FA61724
:1003E000B70710F0A61BB70B881F991F5A95A9F7DE
:0E03F00080959095BC01CD010895F894FFCF43
:0203FE00E1AC70
:00000001FF
