:1000000031C049C048C047C046C045C044C043C0D5
:10001000E4C041C0D6C127C154C16DC185C19AC1D8
:10002000A6C1BDC1000000000000000101010202E4
:10003000030304050607080A0B0D0E101214161907
:100040001B1E2124272B2F32373B3F44494E535947
:100050005F656B72787F878E969EA7AFB8C1CBD550
:10006000DFE9F4FF11241FBECFE9CDBF10E0A0E609
:10007000B0E0ECEFF3E002C005900D92A236B107BC
:10008000D9F720E0A2E6B0E001C01D92A238B20785
:10009000E1F7B7D0B1C1B4CFF894A89514BE88E900
:1000A00081BD82E481BD78940895BC0120916000F7
:1000B00030916100C90181709927919581959109CD
:1000C0008827947B36952795822793279093610004
:1000D000809360007DD10895E2E7F0E0808188237D
:1000E00011F081508083319680E0E238F807B1F753
:1000F000089598E0C39A87FFC39800C0880FC398FB
:100100009150C1F708958F929F92AF92BF92CF9274
:10011000DF92EF92FF920F931F93CF93DF93C2E68C
:10012000D0E002E710E032E7E32E30E0F32E46E0C5
:10013000C42ED12C5FE3A52EB12C8991282F2F73CB
:1001400030E0F80191918F01A601491B5109F90195
:10015000042E02C0F595E7950A94E2F7EC5DFF4F97
:100160008490F501E21BF30B02C0F595E7954A95E3
:10017000E2F7EC5DFF4F949090E026E0959587952F
:100180002A95E1F78130910559F08230910571F09F
:10019000892B91F4882DADDF892DABDF80E00BC07A
:1001A000892DA7DF80E0A5DF882D05C080E0A1DFD5
:1001B000882D9FDF892D9DDFEC16FD0609F0BDCF50
:1001C000DF91CF911F910F91FF90EF90DF90CF9033
:1001D000BF90AF909F908F9008951F920F920FB68F
:1001E0000F9211248F930FB6F894A89581B588616A
:1001F00081BD11BC0FBE8F910F900FBE0F901F904D
:1002000018954ADF80E888B98FE084BB83E085BD1C
:1002100085B7877E806185BFC49ABB9A08E010E0ED
:10022000A0E6AA2EC0E0D1E0B2E7EB2EB0E0FB2EB4
:1002300086E0B82EB49906C0DF5FD83008F0D0E071
:10024000B49BFECF29DF85B7806285BF889585B7CF
:100250008F7D85BF8D2F90E08830910558F7FC0188
:10026000E65FFF4F099438DFE4E0DE2EDC0EF4E0B9
:10027000CF2ECA0C2FEB2D1518F474E4D72EDC0EFC
:100280008FEB8C1518F464E4C62ECA0C1F5F1F7028
:100290000F5F0F70812F90E0FC01EE58FF4FB0828E
:1002A000FC01EE59FF4FD082802F90E0FC01EE5808
:1002B000FF4FB082FC01EE59FF4FC08224DFAC2C0F
:1002C0007EC00ADF84E090E0F0DED82EDD2009F465
:1002D00064C080EC90E0E9DEC82E80E190E0E5DECD
:1002E0009927FC01EE58FF4FB082FC01EE59FF4FF9
:1002F000C082DA94EBCF42E7842E40E0942E52E69F
:10030000C52E50E0D52E80EC90E0CFDEF401B19206
:100310004F01F60181936F01F2E88F16F0E09F061E
:1003200091F7F1DED4E086CF32E6C32E30E0D32E53
:1003300088E090E0BADEF6019081890F803C10F0F1
:10034000805CF6018083FFEFCF1ADF0AEC14FD0416
:1003500079F723C0A2E7B0E0E2E6F0E0C0E0BD92AA
:10036000C193C45FC03CD9F7CEDED6E063CF909195
:10037000810080917100E1E8F0E0A1E7B0E0229116
:1003800021832E9111962C93119720E0E237F207EA
:10039000B1F79093720080936200B5DE4BCF23E0FB
:1003A000D22EDC0E8FEB8D1518F493E4D92EDC0ED3
:1003B000E2E6F0E0D192EE16FF06E1F7A4DECD2DE5
:1003C00039CF08E010E080E6A82EC0E0D1E032CFBF
:1003D000AA1BBB1B51E107C0AA1FBB1FA617B7076B
:1003E00010F0A61BB70B881F991F5A95A9F7809587
:0C03F0009095BC01CD010895F894FFCF5A
:0203FC00E1AC72
:00000001FF
